{
  "_format": "hh-sol-artifact-1",
  "contractName": "Transactions",
  "sourceName": "contracts/Transactions.sol",
  "abi": [
    {
      "inputs": [
        {
          "internalType": "string",
          "name": "title",
          "type": "string"
        },
        {
          "internalType": "string",
          "name": "description",
          "type": "string"
        },
        {
          "internalType": "uint256",
          "name": "price",
          "type": "uint256"
        }
      ],
      "name": "AddToBlockchain",
      "outputs": [],
      "stateMutability": "nonpayable",
      "type": "function"
    },
    {
      "inputs": [
        {
          "components": [
            {
              "internalType": "uint256",
              "name": "Id",
              "type": "uint256"
            },
            {
              "internalType": "string",
              "name": "Title",
              "type": "string"
            },
            {
              "internalType": "address",
              "name": "Author",
              "type": "address"
            },
            {
              "internalType": "string",
              "name": "Description",
              "type": "string"
            },
            {
              "internalType": "uint256",
              "name": "Price",
              "type": "uint256"
            },
            {
              "internalType": "uint256",
              "name": "timestamp",
              "type": "uint256"
            }
          ],
          "internalType": "struct Transactions.ItemStruct",
          "name": "item",
          "type": "tuple"
        }
      ],
      "name": "EditItem",
      "outputs": [],
      "stateMutability": "nonpayable",
      "type": "function"
    },
    {
      "inputs": [],
      "name": "GetAllItems",
      "outputs": [
        {
          "components": [
            {
              "internalType": "uint256",
              "name": "Id",
              "type": "uint256"
            },
            {
              "internalType": "string",
              "name": "Title",
              "type": "string"
            },
            {
              "internalType": "address",
              "name": "Author",
              "type": "address"
            },
            {
              "internalType": "string",
              "name": "Description",
              "type": "string"
            },
            {
              "internalType": "uint256",
              "name": "Price",
              "type": "uint256"
            },
            {
              "internalType": "uint256",
              "name": "timestamp",
              "type": "uint256"
            }
          ],
          "internalType": "struct Transactions.ItemStruct[]",
          "name": "",
          "type": "tuple[]"
        }
      ],
      "stateMutability": "view",
      "type": "function"
    },
    {
      "inputs": [
        {
          "internalType": "uint256",
          "name": "id",
          "type": "uint256"
        }
      ],
      "name": "GetItemById",
      "outputs": [
        {
          "components": [
            {
              "internalType": "uint256",
              "name": "Id",
              "type": "uint256"
            },
            {
              "internalType": "string",
              "name": "Title",
              "type": "string"
            },
            {
              "internalType": "address",
              "name": "Author",
              "type": "address"
            },
            {
              "internalType": "string",
              "name": "Description",
              "type": "string"
            },
            {
              "internalType": "uint256",
              "name": "Price",
              "type": "uint256"
            },
            {
              "internalType": "uint256",
              "name": "timestamp",
              "type": "uint256"
            }
          ],
          "internalType": "struct Transactions.ItemStruct",
          "name": "",
          "type": "tuple"
        }
      ],
      "stateMutability": "view",
      "type": "function"
    },
    {
      "inputs": [],
      "name": "ItemCount",
      "outputs": [
        {
          "internalType": "uint256",
          "name": "",
          "type": "uint256"
        }
      ],
      "stateMutability": "view",
      "type": "function"
    },
    {
      "inputs": [
        {
          "internalType": "uint256",
          "name": "id",
          "type": "uint256"
        }
      ],
      "name": "RemoveItemById",
      "outputs": [],
      "stateMutability": "nonpayable",
      "type": "function"
    },
    {
      "inputs": [],
      "name": "getItemCount",
      "outputs": [
        {
          "internalType": "uint256",
          "name": "",
          "type": "uint256"
        }
      ],
      "stateMutability": "view",
      "type": "function"
    },
    {
      "inputs": [],
      "name": "test",
      "outputs": [
        {
          "internalType": "uint256",
          "name": "",
          "type": "uint256"
        }
      ],
      "stateMutability": "view",
      "type": "function"
    }
  ],
  "bytecode": "0x608060405234801561001057600080fd5b50610cf5806100206000396000f3fe608060405234801561001057600080fd5b50600436106100885760003560e01c8063924dbabd1161005b578063924dbabd146100ea578063b6618983146100ff578063e36ae62414610112578063f8a8fd6d1461012557600080fd5b8063389271ed1461008d5780635a663b91146100ab578063759d0999146100c25780637749cf23146100e2575b600080fd5b61009561012c565b6040516100a2919061088c565b60405180910390f35b6100b460005481565b6040519081526020016100a2565b6100d56100d03660046108ee565b6102e4565b6040516100a29190610907565b6000546100b4565b6100fd6100f83660046108ee565b610478565b005b6100fd61010d3660046109ed565b6104de565b6100fd610120366004610a76565b610646565b60036100b4565b60606001805480602002602001604051908101604052809291908181526020016000905b828210156102db57838290600052602060002090600602016040518060c00160405290816000820154815260200160018201805461018d90610b39565b80601f01602080910402602001604051908101604052809291908181526020018280546101b990610b39565b80156102065780601f106101db57610100808354040283529160200191610206565b820191906000526020600020905b8154815290600101906020018083116101e957829003601f168201915b505050918352505060028201546001600160a01b0316602082015260038201805460409092019161023690610b39565b80601f016020809104026020016040519081016040528092919081815260200182805461026290610b39565b80156102af5780601f10610284576101008083540402835291602001916102af565b820191906000526020600020905b81548152906001019060200180831161029257829003601f168201915b505050505081526020016004820154815260200160058201548152505081526020019060010190610150565b50505050905090565b6102ec610746565b600182815481106102ff576102ff610b73565b90600052602060002090600602016040518060c00160405290816000820154815260200160018201805461033290610b39565b80601f016020809104026020016040519081016040528092919081815260200182805461035e90610b39565b80156103ab5780601f10610380576101008083540402835291602001916103ab565b820191906000526020600020905b81548152906001019060200180831161038e57829003601f168201915b505050918352505060028201546001600160a01b031660208201526003820180546040909201916103db90610b39565b80601f016020809104026020016040519081016040528092919081815260200182805461040790610b39565b80156104545780601f1061042957610100808354040283529160200191610454565b820191906000526020600020905b81548152906001019060200180831161043757829003601f168201915b50505050508152602001600482015481526020016005820154815250509050919050565b6001818154811061048b5761048b610b73565b600091825260208220600690910201818155906104ab6001830182610785565b6002820180546001600160a01b03191690556104cb600383016000610785565b5060006004820181905560059091015550565b600083511180156104f0575060008251115b6105415760405162461bcd60e51b815260206004820152601d60248201527f5469746c65206f72206465736372697074696f6e20697320656d70747900000060448201526064015b60405180910390fd5b610549610746565b6000805482526020820185815233604084015260608301859052608083018490524260a08401526001805480820182559252825160069092027fb10e2d527612073b26eecdfd717e6a320cf44b4afac2b0732d9fcbe2b7fa0cf6810192835590518392917fb10e2d527612073b26eecdfd717e6a320cf44b4afac2b0732d9fcbe2b7fa0cf701906105da9082610bd8565b5060408201516002820180546001600160a01b0319166001600160a01b03909216919091179055606082015160038201906106159082610bd8565b506080820151600482015560a09091015160059091015560008054908061063b83610c98565b919050555050505050565b600081602001515111801561066057506000816060015151115b6106ac5760405162461bcd60e51b815260206004820152601d60248201527f5469746c65206f72206465736372697074696f6e20697320656d7074790000006044820152606401610538565b8060018260000151815481106106c4576106c4610b73565b90600052602060002090600602016000820151816000015560208201518160010190816106f19190610bd8565b5060408201516002820180546001600160a01b0319166001600160a01b039092169190911790556060820151600382019061072c9082610bd8565b506080820151600482015560a09091015160059091015550565b6040518060c00160405280600081526020016060815260200160006001600160a01b031681526020016060815260200160008152602001600081525090565b50805461079190610b39565b6000825580601f106107a1575050565b601f0160209004906000526020600020908101906107bf91906107c2565b50565b5b808211156107d757600081556001016107c3565b5090565b6000815180845260005b81811015610801576020818501810151868301820152016107e5565b506000602082860101526020601f19601f83011685010191505092915050565b805182526000602082015160c0602085015261084060c08501826107db565b905060018060a01b0360408401511660408501526060830151848203606086015261086b82826107db565b9150506080830151608085015260a083015160a08501528091505092915050565b6000602080830181845280855180835260408601915060408160051b870101925083870160005b828110156108e157603f198886030184526108cf858351610821565b945092850192908501906001016108b3565b5092979650505050505050565b60006020828403121561090057600080fd5b5035919050565b60208152600061091a6020830184610821565b9392505050565b634e487b7160e01b600052604160045260246000fd5b60405160c0810167ffffffffffffffff8111828210171561095a5761095a610921565b60405290565b600082601f83011261097157600080fd5b813567ffffffffffffffff8082111561098c5761098c610921565b604051601f8301601f19908116603f011681019082821181831017156109b4576109b4610921565b816040528381528660208588010111156109cd57600080fd5b836020870160208301376000602085830101528094505050505092915050565b600080600060608486031215610a0257600080fd5b833567ffffffffffffffff80821115610a1a57600080fd5b610a2687838801610960565b94506020860135915080821115610a3c57600080fd5b50610a4986828701610960565b925050604084013590509250925092565b80356001600160a01b0381168114610a7157600080fd5b919050565b600060208284031215610a8857600080fd5b813567ffffffffffffffff80821115610aa057600080fd5b9083019060c08286031215610ab457600080fd5b610abc610937565b82358152602083013582811115610ad257600080fd5b610ade87828601610960565b602083015250610af060408401610a5a565b6040820152606083013582811115610b0757600080fd5b610b1387828601610960565b6060830152506080830135608082015260a083013560a082015280935050505092915050565b600181811c90821680610b4d57607f821691505b602082108103610b6d57634e487b7160e01b600052602260045260246000fd5b50919050565b634e487b7160e01b600052603260045260246000fd5b601f821115610bd357600081815260208120601f850160051c81016020861015610bb05750805b601f850160051c820191505b81811015610bcf57828155600101610bbc565b5050505b505050565b815167ffffffffffffffff811115610bf257610bf2610921565b610c0681610c008454610b39565b84610b89565b602080601f831160018114610c3b5760008415610c235750858301515b600019600386901b1c1916600185901b178555610bcf565b600085815260208120601f198616915b82811015610c6a57888601518255948401946001909101908401610c4b565b5085821015610c885787850151600019600388901b60f8161c191681555b5050505050600190811b01905550565b600060018201610cb857634e487b7160e01b600052601160045260246000fd5b506001019056fea26469706673582212200dfab2cecf66c4b5537c15c65cbb9dbdde02019f959dc349f7b07a9071fada4864736f6c63430008130033",
  "linkReferences": {},
  "deployedLinkReferences": {}
}